{
  "_format": "hh-sol-artifact-1",
  "contractName": "BadgeToken",
  "sourceName": "contracts/BadgeToken.sol",
  "abi": [
    {
      "inputs": [
        {
          "internalType": "string",
          "name": "_name",
          "type": "string"
        },
        {
          "internalType": "string",
          "name": "_symbol",
          "type": "string"
        }
      ],
      "stateMutability": "nonpayable",
      "type": "constructor"
    },
    {
      "anonymous": false,
      "inputs": [
        {
          "indexed": true,
          "internalType": "address",
          "name": "owner",
          "type": "address"
        },
        {
          "indexed": true,
          "internalType": "address",
          "name": "approved",
          "type": "address"
        },
        {
          "indexed": true,
          "internalType": "uint256",
          "name": "tokenId",
          "type": "uint256"
        }
      ],
      "name": "Approval",
      "type": "event"
    },
    {
      "anonymous": false,
      "inputs": [
        {
          "indexed": true,
          "internalType": "address",
          "name": "owner",
          "type": "address"
        },
        {
          "indexed": true,
          "internalType": "address",
          "name": "operator",
          "type": "address"
        },
        {
          "indexed": false,
          "internalType": "bool",
          "name": "approved",
          "type": "bool"
        }
      ],
      "name": "ApprovalForAll",
      "type": "event"
    },
    {
      "anonymous": false,
      "inputs": [
        {
          "indexed": true,
          "internalType": "address",
          "name": "from",
          "type": "address"
        },
        {
          "indexed": true,
          "internalType": "address",
          "name": "to",
          "type": "address"
        },
        {
          "indexed": true,
          "internalType": "uint256",
          "name": "tokenId",
          "type": "uint256"
        }
      ],
      "name": "Transfer",
      "type": "event"
    },
    {
      "inputs": [
        {
          "internalType": "address",
          "name": "to",
          "type": "address"
        },
        {
          "internalType": "uint256",
          "name": "tokenId",
          "type": "uint256"
        }
      ],
      "name": "approve",
      "outputs": [],
      "stateMutability": "nonpayable",
      "type": "function"
    },
    {
      "inputs": [
        {
          "internalType": "address",
          "name": "owner",
          "type": "address"
        }
      ],
      "name": "balanceOf",
      "outputs": [
        {
          "internalType": "uint256",
          "name": "",
          "type": "uint256"
        }
      ],
      "stateMutability": "view",
      "type": "function"
    },
    {
      "inputs": [
        {
          "internalType": "uint256",
          "name": "tokenId",
          "type": "uint256"
        }
      ],
      "name": "getApproved",
      "outputs": [
        {
          "internalType": "address",
          "name": "",
          "type": "address"
        }
      ],
      "stateMutability": "view",
      "type": "function"
    },
    {
      "inputs": [
        {
          "internalType": "address",
          "name": "owner",
          "type": "address"
        },
        {
          "internalType": "address",
          "name": "operator",
          "type": "address"
        }
      ],
      "name": "isApprovedForAll",
      "outputs": [
        {
          "internalType": "bool",
          "name": "",
          "type": "bool"
        }
      ],
      "stateMutability": "view",
      "type": "function"
    },
    {
      "inputs": [
        {
          "internalType": "address",
          "name": "_to",
          "type": "address"
        }
      ],
      "name": "mintTo",
      "outputs": [],
      "stateMutability": "nonpayable",
      "type": "function"
    },
    {
      "inputs": [],
      "name": "name",
      "outputs": [
        {
          "internalType": "string",
          "name": "",
          "type": "string"
        }
      ],
      "stateMutability": "view",
      "type": "function"
    },
    {
      "inputs": [
        {
          "internalType": "uint256",
          "name": "tokenId",
          "type": "uint256"
        }
      ],
      "name": "ownerOf",
      "outputs": [
        {
          "internalType": "address",
          "name": "",
          "type": "address"
        }
      ],
      "stateMutability": "view",
      "type": "function"
    },
    {
      "inputs": [
        {
          "internalType": "address",
          "name": "from",
          "type": "address"
        },
        {
          "internalType": "address",
          "name": "to",
          "type": "address"
        },
        {
          "internalType": "uint256",
          "name": "tokenId",
          "type": "uint256"
        }
      ],
      "name": "safeTransferFrom",
      "outputs": [],
      "stateMutability": "nonpayable",
      "type": "function"
    },
    {
      "inputs": [
        {
          "internalType": "address",
          "name": "from",
          "type": "address"
        },
        {
          "internalType": "address",
          "name": "to",
          "type": "address"
        },
        {
          "internalType": "uint256",
          "name": "tokenId",
          "type": "uint256"
        },
        {
          "internalType": "bytes",
          "name": "data",
          "type": "bytes"
        }
      ],
      "name": "safeTransferFrom",
      "outputs": [],
      "stateMutability": "nonpayable",
      "type": "function"
    },
    {
      "inputs": [
        {
          "internalType": "address",
          "name": "operator",
          "type": "address"
        },
        {
          "internalType": "bool",
          "name": "approved",
          "type": "bool"
        }
      ],
      "name": "setApprovalForAll",
      "outputs": [],
      "stateMutability": "nonpayable",
      "type": "function"
    },
    {
      "inputs": [
        {
          "internalType": "bytes4",
          "name": "interfaceId",
          "type": "bytes4"
        }
      ],
      "name": "supportsInterface",
      "outputs": [
        {
          "internalType": "bool",
          "name": "",
          "type": "bool"
        }
      ],
      "stateMutability": "view",
      "type": "function"
    },
    {
      "inputs": [],
      "name": "symbol",
      "outputs": [
        {
          "internalType": "string",
          "name": "",
          "type": "string"
        }
      ],
      "stateMutability": "view",
      "type": "function"
    },
    {
      "inputs": [
        {
          "internalType": "uint256",
          "name": "tokenId",
          "type": "uint256"
        }
      ],
      "name": "tokenURI",
      "outputs": [
        {
          "internalType": "string",
          "name": "",
          "type": "string"
        }
      ],
      "stateMutability": "view",
      "type": "function"
    },
    {
      "inputs": [
        {
          "internalType": "address",
          "name": "from",
          "type": "address"
        },
        {
          "internalType": "address",
          "name": "to",
          "type": "address"
        },
        {
          "internalType": "uint256",
          "name": "tokenId",
          "type": "uint256"
        }
      ],
      "name": "transferFrom",
      "outputs": [],
      "stateMutability": "nonpayable",
      "type": "function"
    }
  ],
  "bytecode": "0x608060405260006006553480156200001657600080fd5b5060405162002a5338038062002a5383398181016040528101906200003c9190620001ff565b818181600090816200004f9190620004cf565b508060019081620000619190620004cf565b5050505050620005b6565b6000604051905090565b600080fd5b600080fd5b600080fd5b600080fd5b6000601f19601f8301169050919050565b7f4e487b7100000000000000000000000000000000000000000000000000000000600052604160045260246000fd5b620000d5826200008a565b810181811067ffffffffffffffff82111715620000f757620000f66200009b565b5b80604052505050565b60006200010c6200006c565b90506200011a8282620000ca565b919050565b600067ffffffffffffffff8211156200013d576200013c6200009b565b5b62000148826200008a565b9050602081019050919050565b60005b838110156200017557808201518184015260208101905062000158565b60008484015250505050565b60006200019862000192846200011f565b62000100565b905082815260208101848484011115620001b757620001b662000085565b5b620001c484828562000155565b509392505050565b600082601f830112620001e457620001e362000080565b5b8151620001f684826020860162000181565b91505092915050565b6000806040838503121562000219576200021862000076565b5b600083015167ffffffffffffffff8111156200023a57620002396200007b565b5b6200024885828601620001cc565b925050602083015167ffffffffffffffff8111156200026c576200026b6200007b565b5b6200027a85828601620001cc565b9150509250929050565b600081519050919050565b7f4e487b7100000000000000000000000000000000000000000000000000000000600052602260045260246000fd5b60006002820490506001821680620002d757607f821691505b602082108103620002ed57620002ec6200028f565b5b50919050565b60008190508160005260206000209050919050565b60006020601f8301049050919050565b600082821b905092915050565b600060088302620003577fffffffffffffffffffffffffffffffffffffffffffffffffffffffffffffffff8262000318565b62000363868362000318565b95508019841693508086168417925050509392505050565b6000819050919050565b6000819050919050565b6000620003b0620003aa620003a4846200037b565b62000385565b6200037b565b9050919050565b6000819050919050565b620003cc836200038f565b620003e4620003db82620003b7565b84845462000325565b825550505050565b600090565b620003fb620003ec565b62000408818484620003c1565b505050565b5b81811015620004305762000424600082620003f1565b6001810190506200040e565b5050565b601f8211156200047f576200044981620002f3565b620004548462000308565b8101602085101562000464578190505b6200047c620004738562000308565b8301826200040d565b50505b505050565b600082821c905092915050565b6000620004a46000198460080262000484565b1980831691505092915050565b6000620004bf838362000491565b9150826002028217905092915050565b620004da8262000284565b67ffffffffffffffff811115620004f657620004f56200009b565b5b620005028254620002be565b6200050f82828562000434565b600060209050601f83116001811462000547576000841562000532578287015190505b6200053e8582620004b1565b865550620005ae565b601f1984166200055786620002f3565b60005b8281101562000581578489015182556001820191506020850194506020810190506200055a565b86831015620005a157848901516200059d601f89168262000491565b8355505b6001600288020188555050505b505050505050565b61248d80620005c66000396000f3fe608060405234801561001057600080fd5b50600436106100ea5760003560e01c806370a082311161008c578063a22cb46511610066578063a22cb4651461025b578063b88d4fde14610277578063c87b56dd14610293578063e985e9c5146102c3576100ea565b806370a08231146101f1578063755edd171461022157806395d89b411461023d576100ea565b8063095ea7b3116100c8578063095ea7b31461016d57806323b872dd1461018957806342842e0e146101a55780636352211e146101c1576100ea565b806301ffc9a7146100ef57806306fdde031461011f578063081812fc1461013d575b600080fd5b61010960048036038101906101049190611619565b6102f3565b6040516101169190611661565b60405180910390f35b6101276103d5565b604051610134919061170c565b60405180910390f35b61015760048036038101906101529190611764565b610467565b60405161016491906117d2565b60405180910390f35b61018760048036038101906101829190611819565b6104ad565b005b6101a3600480360381019061019e9190611859565b6105c4565b005b6101bf60048036038101906101ba9190611859565b610624565b005b6101db60048036038101906101d69190611764565b610644565b6040516101e891906117d2565b60405180910390f35b61020b600480360381019061020691906118ac565b6106f5565b60405161021891906118e8565b60405180910390f35b61023b600480360381019061023691906118ac565b6107ac565b005b6102456107ce565b604051610252919061170c565b60405180910390f35b6102756004803603810190610270919061192f565b610860565b005b610291600480360381019061028c9190611aa4565b610876565b005b6102ad60048036038101906102a89190611764565b6108d8565b6040516102ba919061170c565b60405180910390f35b6102dd60048036038101906102d89190611b27565b610940565b6040516102ea9190611661565b60405180910390f35b60007f80ac58cd000000000000000000000000000000000000000000000000000000007bffffffffffffffffffffffffffffffffffffffffffffffffffffffff1916827bffffffffffffffffffffffffffffffffffffffffffffffffffffffff191614806103be57507f5b5e139f000000000000000000000000000000000000000000000000000000007bffffffffffffffffffffffffffffffffffffffffffffffffffffffff1916827bffffffffffffffffffffffffffffffffffffffffffffffffffffffff1916145b806103ce57506103cd826109d4565b5b9050919050565b6060600080546103e490611b96565b80601f016020809104026020016040519081016040528092919081815260200182805461041090611b96565b801561045d5780601f106104325761010080835404028352916020019161045d565b820191906000526020600020905b81548152906001019060200180831161044057829003601f168201915b5050505050905090565b600061047282610a3e565b6004600083815260200190815260200160002060009054906101000a900473ffffffffffffffffffffffffffffffffffffffff169050919050565b60006104b882610644565b90508073ffffffffffffffffffffffffffffffffffffffff168373ffffffffffffffffffffffffffffffffffffffff1603610528576040517f08c379a000000000000000000000000000000000000000000000000000000000815260040161051f90611c39565b60405180910390fd5b8073ffffffffffffffffffffffffffffffffffffffff16610547610a89565b73ffffffffffffffffffffffffffffffffffffffff161480610576575061057581610570610a89565b610940565b5b6105b5576040517f08c379a00000000000000000000000000000000000000000000000000000000081526004016105ac90611ccb565b60405180910390fd5b6105bf8383610a91565b505050565b6105d56105cf610a89565b82610b4a565b610614576040517f08c379a000000000000000000000000000000000000000000000000000000000815260040161060b90611d5d565b60405180910390fd5b61061f838383610bdf565b505050565b61063f83838360405180602001604052806000815250610876565b505050565b6000806002600084815260200190815260200160002060009054906101000a900473ffffffffffffffffffffffffffffffffffffffff169050600073ffffffffffffffffffffffffffffffffffffffff168173ffffffffffffffffffffffffffffffffffffffff16036106ec576040517f08c379a00000000000000000000000000000000000000000000000000000000081526004016106e390611dc9565b60405180910390fd5b80915050919050565b60008073ffffffffffffffffffffffffffffffffffffffff168273ffffffffffffffffffffffffffffffffffffffff1603610765576040517f08c379a000000000000000000000000000000000000000000000000000000000815260040161075c90611e5b565b60405180910390fd5b600360008373ffffffffffffffffffffffffffffffffffffffff1673ffffffffffffffffffffffffffffffffffffffff168152602001908152602001600020549050919050565b60006107b6610e45565b90506107c28282610e5b565b6107ca611034565b5050565b6060600180546107dd90611b96565b80601f016020809104026020016040519081016040528092919081815260200182805461080990611b96565b80156108565780601f1061082b57610100808354040283529160200191610856565b820191906000526020600020905b81548152906001019060200180831161083957829003601f168201915b5050505050905090565b61087261086b610a89565b838361104e565b5050565b610887610881610a89565b83610b4a565b6108c6576040517f08c379a00000000000000000000000000000000000000000000000000000000081526004016108bd90611d5d565b60405180910390fd5b6108d2848484846111ba565b50505050565b60606108e382610a3e565b60006108ed611216565b9050600081511161090d5760405180602001604052806000815250610938565b806109178461122d565b604051602001610928929190611eb7565b6040516020818303038152906040525b915050919050565b6000600560008473ffffffffffffffffffffffffffffffffffffffff1673ffffffffffffffffffffffffffffffffffffffff16815260200190815260200160002060008373ffffffffffffffffffffffffffffffffffffffff1673ffffffffffffffffffffffffffffffffffffffff16815260200190815260200160002060009054906101000a900460ff16905092915050565b60007f01ffc9a7000000000000000000000000000000000000000000000000000000007bffffffffffffffffffffffffffffffffffffffffffffffffffffffff1916827bffffffffffffffffffffffffffffffffffffffffffffffffffffffff1916149050919050565b610a478161138d565b610a86576040517f08c379a0000000000000000000000000000000000000000000000000000000008152600401610a7d90611dc9565b60405180910390fd5b50565b600033905090565b816004600083815260200190815260200160002060006101000a81548173ffffffffffffffffffffffffffffffffffffffff021916908373ffffffffffffffffffffffffffffffffffffffff160217905550808273ffffffffffffffffffffffffffffffffffffffff16610b0483610644565b73ffffffffffffffffffffffffffffffffffffffff167f8c5be1e5ebec7d5bd14f71427d1e84f3dd0314c0f7b2291e5b200ac8c7c3b92560405160405180910390a45050565b600080610b5683610644565b90508073ffffffffffffffffffffffffffffffffffffffff168473ffffffffffffffffffffffffffffffffffffffff161480610b985750610b978185610940565b5b80610bd657508373ffffffffffffffffffffffffffffffffffffffff16610bbe84610467565b73ffffffffffffffffffffffffffffffffffffffff16145b91505092915050565b8273ffffffffffffffffffffffffffffffffffffffff16610bff82610644565b73ffffffffffffffffffffffffffffffffffffffff1614610c55576040517f08c379a0000000000000000000000000000000000000000000000000000000008152600401610c4c90611f4d565b60405180910390fd5b600073ffffffffffffffffffffffffffffffffffffffff168273ffffffffffffffffffffffffffffffffffffffff1603610cc4576040517f08c379a0000000000000000000000000000000000000000000000000000000008152600401610cbb90611fdf565b60405180910390fd5b610ccf8383836113f9565b610cda600082610a91565b6001600360008573ffffffffffffffffffffffffffffffffffffffff1673ffffffffffffffffffffffffffffffffffffffff1681526020019081526020016000206000828254610d2a919061202e565b925050819055506001600360008473ffffffffffffffffffffffffffffffffffffffff1673ffffffffffffffffffffffffffffffffffffffff1681526020019081526020016000206000828254610d819190612062565b92505081905550816002600083815260200190815260200160002060006101000a81548173ffffffffffffffffffffffffffffffffffffffff021916908373ffffffffffffffffffffffffffffffffffffffff160217905550808273ffffffffffffffffffffffffffffffffffffffff168473ffffffffffffffffffffffffffffffffffffffff167fddf252ad1be2c89b69c2b068fc378daa952ba7f163c4a11628f55a4df523b3ef60405160405180910390a4610e408383836113fe565b505050565b60006001600654610e569190612062565b905090565b600073ffffffffffffffffffffffffffffffffffffffff168273ffffffffffffffffffffffffffffffffffffffff1603610eca576040517f08c379a0000000000000000000000000000000000000000000000000000000008152600401610ec1906120e2565b60405180910390fd5b610ed38161138d565b15610f13576040517f08c379a0000000000000000000000000000000000000000000000000000000008152600401610f0a9061214e565b60405180910390fd5b610f1f600083836113f9565b6001600360008473ffffffffffffffffffffffffffffffffffffffff1673ffffffffffffffffffffffffffffffffffffffff1681526020019081526020016000206000828254610f6f9190612062565b92505081905550816002600083815260200190815260200160002060006101000a81548173ffffffffffffffffffffffffffffffffffffffff021916908373ffffffffffffffffffffffffffffffffffffffff160217905550808273ffffffffffffffffffffffffffffffffffffffff16600073ffffffffffffffffffffffffffffffffffffffff167fddf252ad1be2c89b69c2b068fc378daa952ba7f163c4a11628f55a4df523b3ef60405160405180910390a4611030600083836113fe565b5050565b600660008154809291906110479061216e565b9190505550565b8173ffffffffffffffffffffffffffffffffffffffff168373ffffffffffffffffffffffffffffffffffffffff16036110bc576040517f08c379a00000000000000000000000000000000000000000000000000000000081526004016110b390612202565b60405180910390fd5b80600560008573ffffffffffffffffffffffffffffffffffffffff1673ffffffffffffffffffffffffffffffffffffffff16815260200190815260200160002060008473ffffffffffffffffffffffffffffffffffffffff1673ffffffffffffffffffffffffffffffffffffffff16815260200190815260200160002060006101000a81548160ff0219169083151502179055508173ffffffffffffffffffffffffffffffffffffffff168373ffffffffffffffffffffffffffffffffffffffff167f17307eab39ab6107e8899845ad3d59bd9653f200f220920489ca2b5937696c31836040516111ad9190611661565b60405180910390a3505050565b6111c5848484610bdf565b6111d184848484611403565b611210576040517f08c379a000000000000000000000000000000000000000000000000000000000815260040161120790612294565b60405180910390fd5b50505050565b606060405180602001604052806000815250905090565b606060008203611274576040518060400160405280600181526020017f30000000000000000000000000000000000000000000000000000000000000008152509050611388565b600082905060005b600082146112a657808061128f9061216e565b915050600a8261129f91906122e3565b915061127c565b60008167ffffffffffffffff8111156112c2576112c1611979565b5b6040519080825280601f01601f1916602001820160405280156112f45781602001600182028036833780820191505090505b5090505b600085146113815760018261130d919061202e565b9150600a8561131c9190612314565b60306113289190612062565b60f81b81838151811061133e5761133d612345565b5b60200101907effffffffffffffffffffffffffffffffffffffffffffffffffffffffffffff1916908160001a905350600a8561137a91906122e3565b94506112f8565b8093505050505b919050565b60008073ffffffffffffffffffffffffffffffffffffffff166002600084815260200190815260200160002060009054906101000a900473ffffffffffffffffffffffffffffffffffffffff1673ffffffffffffffffffffffffffffffffffffffff1614159050919050565b505050565b505050565b60006114248473ffffffffffffffffffffffffffffffffffffffff1661158a565b1561157d578373ffffffffffffffffffffffffffffffffffffffff1663150b7a0261144d610a89565b8786866040518563ffffffff1660e01b815260040161146f94939291906123c9565b6020604051808303816000875af19250505080156114ab57506040513d601f19601f820116820180604052508101906114a8919061242a565b60015b61152d573d80600081146114db576040519150601f19603f3d011682016040523d82523d6000602084013e6114e0565b606091505b506000815103611525576040517f08c379a000000000000000000000000000000000000000000000000000000000815260040161151c90612294565b60405180910390fd5b805181602001fd5b63150b7a0260e01b7bffffffffffffffffffffffffffffffffffffffffffffffffffffffff1916817bffffffffffffffffffffffffffffffffffffffffffffffffffffffff191614915050611582565b600190505b949350505050565b6000808273ffffffffffffffffffffffffffffffffffffffff163b119050919050565b6000604051905090565b600080fd5b600080fd5b60007fffffffff0000000000000000000000000000000000000000000000000000000082169050919050565b6115f6816115c1565b811461160157600080fd5b50565b600081359050611613816115ed565b92915050565b60006020828403121561162f5761162e6115b7565b5b600061163d84828501611604565b91505092915050565b60008115159050919050565b61165b81611646565b82525050565b60006020820190506116766000830184611652565b92915050565b600081519050919050565b600082825260208201905092915050565b60005b838110156116b657808201518184015260208101905061169b565b60008484015250505050565b6000601f19601f8301169050919050565b60006116de8261167c565b6116e88185611687565b93506116f8818560208601611698565b611701816116c2565b840191505092915050565b6000602082019050818103600083015261172681846116d3565b905092915050565b6000819050919050565b6117418161172e565b811461174c57600080fd5b50565b60008135905061175e81611738565b92915050565b60006020828403121561177a576117796115b7565b5b60006117888482850161174f565b91505092915050565b600073ffffffffffffffffffffffffffffffffffffffff82169050919050565b60006117bc82611791565b9050919050565b6117cc816117b1565b82525050565b60006020820190506117e760008301846117c3565b92915050565b6117f6816117b1565b811461180157600080fd5b50565b600081359050611813816117ed565b92915050565b600080604083850312156118305761182f6115b7565b5b600061183e85828601611804565b925050602061184f8582860161174f565b9150509250929050565b600080600060608486031215611872576118716115b7565b5b600061188086828701611804565b935050602061189186828701611804565b92505060406118a28682870161174f565b9150509250925092565b6000602082840312156118c2576118c16115b7565b5b60006118d084828501611804565b91505092915050565b6118e28161172e565b82525050565b60006020820190506118fd60008301846118d9565b92915050565b61190c81611646565b811461191757600080fd5b50565b60008135905061192981611903565b92915050565b60008060408385031215611946576119456115b7565b5b600061195485828601611804565b92505060206119658582860161191a565b9150509250929050565b600080fd5b600080fd5b7f4e487b7100000000000000000000000000000000000000000000000000000000600052604160045260246000fd5b6119b1826116c2565b810181811067ffffffffffffffff821117156119d0576119cf611979565b5b80604052505050565b60006119e36115ad565b90506119ef82826119a8565b919050565b600067ffffffffffffffff821115611a0f57611a0e611979565b5b611a18826116c2565b9050602081019050919050565b82818337600083830152505050565b6000611a47611a42846119f4565b6119d9565b905082815260208101848484011115611a6357611a62611974565b5b611a6e848285611a25565b509392505050565b600082601f830112611a8b57611a8a61196f565b5b8135611a9b848260208601611a34565b91505092915050565b60008060008060808587031215611abe57611abd6115b7565b5b6000611acc87828801611804565b9450506020611add87828801611804565b9350506040611aee8782880161174f565b925050606085013567ffffffffffffffff811115611b0f57611b0e6115bc565b5b611b1b87828801611a76565b91505092959194509250565b60008060408385031215611b3e57611b3d6115b7565b5b6000611b4c85828601611804565b9250506020611b5d85828601611804565b9150509250929050565b7f4e487b7100000000000000000000000000000000000000000000000000000000600052602260045260246000fd5b60006002820490506001821680611bae57607f821691505b602082108103611bc157611bc0611b67565b5b50919050565b7f4552433732313a20617070726f76616c20746f2063757272656e74206f776e6560008201527f7200000000000000000000000000000000000000000000000000000000000000602082015250565b6000611c23602183611687565b9150611c2e82611bc7565b604082019050919050565b60006020820190508181036000830152611c5281611c16565b9050919050565b7f4552433732313a20617070726f76652063616c6c6572206973206e6f7420746f60008201527f6b656e206f776e6572206e6f7220617070726f76656420666f7220616c6c0000602082015250565b6000611cb5603e83611687565b9150611cc082611c59565b604082019050919050565b60006020820190508181036000830152611ce481611ca8565b9050919050565b7f4552433732313a2063616c6c6572206973206e6f7420746f6b656e206f776e6560008201527f72206e6f7220617070726f766564000000000000000000000000000000000000602082015250565b6000611d47602e83611687565b9150611d5282611ceb565b604082019050919050565b60006020820190508181036000830152611d7681611d3a565b9050919050565b7f4552433732313a20696e76616c696420746f6b656e2049440000000000000000600082015250565b6000611db3601883611687565b9150611dbe82611d7d565b602082019050919050565b60006020820190508181036000830152611de281611da6565b9050919050565b7f4552433732313a2061646472657373207a65726f206973206e6f74206120766160008201527f6c6964206f776e65720000000000000000000000000000000000000000000000602082015250565b6000611e45602983611687565b9150611e5082611de9565b604082019050919050565b60006020820190508181036000830152611e7481611e38565b9050919050565b600081905092915050565b6000611e918261167c565b611e9b8185611e7b565b9350611eab818560208601611698565b80840191505092915050565b6000611ec38285611e86565b9150611ecf8284611e86565b91508190509392505050565b7f4552433732313a207472616e736665722066726f6d20696e636f72726563742060008201527f6f776e6572000000000000000000000000000000000000000000000000000000602082015250565b6000611f37602583611687565b9150611f4282611edb565b604082019050919050565b60006020820190508181036000830152611f6681611f2a565b9050919050565b7f4552433732313a207472616e7366657220746f20746865207a65726f2061646460008201527f7265737300000000000000000000000000000000000000000000000000000000602082015250565b6000611fc9602483611687565b9150611fd482611f6d565b604082019050919050565b60006020820190508181036000830152611ff881611fbc565b9050919050565b7f4e487b7100000000000000000000000000000000000000000000000000000000600052601160045260246000fd5b60006120398261172e565b91506120448361172e565b925082820390508181111561205c5761205b611fff565b5b92915050565b600061206d8261172e565b91506120788361172e565b92508282019050808211156120905761208f611fff565b5b92915050565b7f4552433732313a206d696e7420746f20746865207a65726f2061646472657373600082015250565b60006120cc602083611687565b91506120d782612096565b602082019050919050565b600060208201905081810360008301526120fb816120bf565b9050919050565b7f4552433732313a20746f6b656e20616c7265616479206d696e74656400000000600082015250565b6000612138601c83611687565b915061214382612102565b602082019050919050565b600060208201905081810360008301526121678161212b565b9050919050565b60006121798261172e565b91507fffffffffffffffffffffffffffffffffffffffffffffffffffffffffffffffff82036121ab576121aa611fff565b5b600182019050919050565b7f4552433732313a20617070726f766520746f2063616c6c657200000000000000600082015250565b60006121ec601983611687565b91506121f7826121b6565b602082019050919050565b6000602082019050818103600083015261221b816121df565b9050919050565b7f4552433732313a207472616e7366657220746f206e6f6e20455243373231526560008201527f63656976657220696d706c656d656e7465720000000000000000000000000000602082015250565b600061227e603283611687565b915061228982612222565b604082019050919050565b600060208201905081810360008301526122ad81612271565b9050919050565b7f4e487b7100000000000000000000000000000000000000000000000000000000600052601260045260246000fd5b60006122ee8261172e565b91506122f98361172e565b925082612309576123086122b4565b5b828204905092915050565b600061231f8261172e565b915061232a8361172e565b92508261233a576123396122b4565b5b828206905092915050565b7f4e487b7100000000000000000000000000000000000000000000000000000000600052603260045260246000fd5b600081519050919050565b600082825260208201905092915050565b600061239b82612374565b6123a5818561237f565b93506123b5818560208601611698565b6123be816116c2565b840191505092915050565b60006080820190506123de60008301876117c3565b6123eb60208301866117c3565b6123f860408301856118d9565b818103606083015261240a8184612390565b905095945050505050565b600081519050612424816115ed565b92915050565b6000602082840312156124405761243f6115b7565b5b600061244e84828501612415565b9150509291505056fea264697066735822122019fdd6ca71b081158137ee94dc8a361ee2d918f1f4bfc482feccc49d9c60528364736f6c63430008110033",
  "linkReferences": {},
  "deployedLinkReferences": {}
}