{
  "_format": "hh-sol-artifact-1",
  "contractName": "CoinToken",
  "sourceName": "contracts/CoinToken.sol",
  "abi": [
    {
      "inputs": [
        {
          "internalType": "string",
          "name": "name",
          "type": "string"
        },
        {
          "internalType": "string",
          "name": "symbol",
          "type": "string"
        }
      ],
      "stateMutability": "nonpayable",
      "type": "constructor"
    },
    {
      "anonymous": false,
      "inputs": [
        {
          "indexed": true,
          "internalType": "address",
          "name": "owner",
          "type": "address"
        },
        {
          "indexed": true,
          "internalType": "address",
          "name": "approved",
          "type": "address"
        },
        {
          "indexed": true,
          "internalType": "uint256",
          "name": "tokenId",
          "type": "uint256"
        }
      ],
      "name": "Approval",
      "type": "event"
    },
    {
      "anonymous": false,
      "inputs": [
        {
          "indexed": true,
          "internalType": "address",
          "name": "owner",
          "type": "address"
        },
        {
          "indexed": true,
          "internalType": "address",
          "name": "operator",
          "type": "address"
        },
        {
          "indexed": false,
          "internalType": "bool",
          "name": "approved",
          "type": "bool"
        }
      ],
      "name": "ApprovalForAll",
      "type": "event"
    },
    {
      "anonymous": false,
      "inputs": [
        {
          "indexed": true,
          "internalType": "address",
          "name": "previousOwner",
          "type": "address"
        },
        {
          "indexed": true,
          "internalType": "address",
          "name": "newOwner",
          "type": "address"
        }
      ],
      "name": "OwnershipTransferred",
      "type": "event"
    },
    {
      "anonymous": false,
      "inputs": [
        {
          "indexed": true,
          "internalType": "address",
          "name": "from",
          "type": "address"
        },
        {
          "indexed": true,
          "internalType": "address",
          "name": "to",
          "type": "address"
        },
        {
          "indexed": true,
          "internalType": "uint256",
          "name": "tokenId",
          "type": "uint256"
        }
      ],
      "name": "Transfer",
      "type": "event"
    },
    {
      "anonymous": false,
      "inputs": [
        {
          "indexed": false,
          "internalType": "address",
          "name": "bountyHunter",
          "type": "address"
        },
        {
          "indexed": false,
          "internalType": "address",
          "name": "robber",
          "type": "address"
        }
      ],
      "name": "bountyHunterChecksRobber",
      "type": "event"
    },
    {
      "anonymous": false,
      "inputs": [
        {
          "indexed": false,
          "internalType": "address",
          "name": "robber",
          "type": "address"
        },
        {
          "indexed": false,
          "internalType": "uint256",
          "name": "numberOfStolen",
          "type": "uint256"
        }
      ],
      "name": "robberyHappened",
      "type": "event"
    },
    {
      "anonymous": false,
      "inputs": [
        {
          "indexed": false,
          "internalType": "address",
          "name": "person",
          "type": "address"
        }
      ],
      "name": "somebodyEarnsCoin",
      "type": "event"
    },
    {
      "inputs": [
        {
          "internalType": "address",
          "name": "to",
          "type": "address"
        },
        {
          "internalType": "uint256",
          "name": "tokenId",
          "type": "uint256"
        }
      ],
      "name": "approve",
      "outputs": [],
      "stateMutability": "nonpayable",
      "type": "function"
    },
    {
      "inputs": [
        {
          "internalType": "address",
          "name": "owner",
          "type": "address"
        }
      ],
      "name": "balanceOf",
      "outputs": [
        {
          "internalType": "uint256",
          "name": "",
          "type": "uint256"
        }
      ],
      "stateMutability": "view",
      "type": "function"
    },
    {
      "inputs": [],
      "name": "checkLastRobber",
      "outputs": [
        {
          "internalType": "address",
          "name": "robberAddress",
          "type": "address"
        }
      ],
      "stateMutability": "nonpayable",
      "type": "function"
    },
    {
      "inputs": [],
      "name": "citizenEarnsCoin",
      "outputs": [],
      "stateMutability": "nonpayable",
      "type": "function"
    },
    {
      "inputs": [],
      "name": "coinsInTown",
      "outputs": [
        {
          "internalType": "uint256",
          "name": "count",
          "type": "uint256"
        }
      ],
      "stateMutability": "view",
      "type": "function"
    },
    {
      "inputs": [
        {
          "internalType": "uint256",
          "name": "tokenId",
          "type": "uint256"
        }
      ],
      "name": "getApproved",
      "outputs": [
        {
          "internalType": "address",
          "name": "",
          "type": "address"
        }
      ],
      "stateMutability": "view",
      "type": "function"
    },
    {
      "inputs": [
        {
          "internalType": "address",
          "name": "owner",
          "type": "address"
        },
        {
          "internalType": "address",
          "name": "operator",
          "type": "address"
        }
      ],
      "name": "isApprovedForAll",
      "outputs": [
        {
          "internalType": "bool",
          "name": "",
          "type": "bool"
        }
      ],
      "stateMutability": "view",
      "type": "function"
    },
    {
      "inputs": [
        {
          "internalType": "address",
          "name": "to",
          "type": "address"
        },
        {
          "internalType": "string",
          "name": "uri",
          "type": "string"
        }
      ],
      "name": "mintTo",
      "outputs": [],
      "stateMutability": "nonpayable",
      "type": "function"
    },
    {
      "inputs": [],
      "name": "name",
      "outputs": [
        {
          "internalType": "string",
          "name": "",
          "type": "string"
        }
      ],
      "stateMutability": "view",
      "type": "function"
    },
    {
      "inputs": [],
      "name": "owner",
      "outputs": [
        {
          "internalType": "address",
          "name": "",
          "type": "address"
        }
      ],
      "stateMutability": "view",
      "type": "function"
    },
    {
      "inputs": [
        {
          "internalType": "uint256",
          "name": "tokenId",
          "type": "uint256"
        }
      ],
      "name": "ownerOf",
      "outputs": [
        {
          "internalType": "address",
          "name": "",
          "type": "address"
        }
      ],
      "stateMutability": "view",
      "type": "function"
    },
    {
      "inputs": [],
      "name": "performRobbery",
      "outputs": [
        {
          "internalType": "uint256",
          "name": "numberOfStolen",
          "type": "uint256"
        },
        {
          "internalType": "address",
          "name": "robberAddress",
          "type": "address"
        }
      ],
      "stateMutability": "nonpayable",
      "type": "function"
    },
    {
      "inputs": [],
      "name": "renounceOwnership",
      "outputs": [],
      "stateMutability": "nonpayable",
      "type": "function"
    },
    {
      "inputs": [
        {
          "internalType": "address",
          "name": "from",
          "type": "address"
        },
        {
          "internalType": "address",
          "name": "to",
          "type": "address"
        },
        {
          "internalType": "uint256",
          "name": "tokenId",
          "type": "uint256"
        }
      ],
      "name": "safeTransferFrom",
      "outputs": [],
      "stateMutability": "nonpayable",
      "type": "function"
    },
    {
      "inputs": [
        {
          "internalType": "address",
          "name": "from",
          "type": "address"
        },
        {
          "internalType": "address",
          "name": "to",
          "type": "address"
        },
        {
          "internalType": "uint256",
          "name": "tokenId",
          "type": "uint256"
        },
        {
          "internalType": "bytes",
          "name": "data",
          "type": "bytes"
        }
      ],
      "name": "safeTransferFrom",
      "outputs": [],
      "stateMutability": "nonpayable",
      "type": "function"
    },
    {
      "inputs": [
        {
          "internalType": "address",
          "name": "operator",
          "type": "address"
        },
        {
          "internalType": "bool",
          "name": "approved",
          "type": "bool"
        }
      ],
      "name": "setApprovalForAll",
      "outputs": [],
      "stateMutability": "nonpayable",
      "type": "function"
    },
    {
      "inputs": [
        {
          "internalType": "bytes4",
          "name": "interfaceId",
          "type": "bytes4"
        }
      ],
      "name": "supportsInterface",
      "outputs": [
        {
          "internalType": "bool",
          "name": "",
          "type": "bool"
        }
      ],
      "stateMutability": "view",
      "type": "function"
    },
    {
      "inputs": [],
      "name": "symbol",
      "outputs": [
        {
          "internalType": "string",
          "name": "",
          "type": "string"
        }
      ],
      "stateMutability": "view",
      "type": "function"
    },
    {
      "inputs": [
        {
          "internalType": "uint256",
          "name": "tokenId",
          "type": "uint256"
        }
      ],
      "name": "tokenURI",
      "outputs": [
        {
          "internalType": "string",
          "name": "",
          "type": "string"
        }
      ],
      "stateMutability": "view",
      "type": "function"
    },
    {
      "inputs": [
        {
          "internalType": "address",
          "name": "from",
          "type": "address"
        },
        {
          "internalType": "address",
          "name": "to",
          "type": "address"
        },
        {
          "internalType": "uint256",
          "name": "tokenId",
          "type": "uint256"
        }
      ],
      "name": "transferFrom",
      "outputs": [],
      "stateMutability": "nonpayable",
      "type": "function"
    },
    {
      "inputs": [
        {
          "internalType": "address",
          "name": "newOwner",
          "type": "address"
        }
      ],
      "name": "transferOwnership",
      "outputs": [],
      "stateMutability": "nonpayable",
      "type": "function"
    }
  ],
  "bytecode": "0x6080604052600160095560405180606001604052807380c9122686a039a343c0bf7c0b09fd502ddf6bdf73ffffffffffffffffffffffffffffffffffffffff1673ffffffffffffffffffffffffffffffffffffffff16815260200173212eeea8df8ca4aee32755ca1b0d1385990614b073ffffffffffffffffffffffffffffffffffffffff1673ffffffffffffffffffffffffffffffffffffffff16815260200173ab66b56d37db42589c651feb32ca22152432e65573ffffffffffffffffffffffffffffffffffffffff1673ffffffffffffffffffffffffffffffffffffffff16815250600b906003620000f692919062000248565b503480156200010457600080fd5b5060405162003c3f38038062003c3f83398181016040528101906200012a919062000489565b818181600090816200013d919062000759565b5080600190816200014f919062000759565b50505062000172620001666200017a60201b60201c565b6200018260201b60201c565b505062000840565b600033905090565b6000600760009054906101000a900473ffffffffffffffffffffffffffffffffffffffff16905081600760006101000a81548173ffffffffffffffffffffffffffffffffffffffff021916908373ffffffffffffffffffffffffffffffffffffffff1602179055508173ffffffffffffffffffffffffffffffffffffffff168173ffffffffffffffffffffffffffffffffffffffff167f8be0079c531659141344cd1fd0a4f28419497f9722a3daafe3b4186f6b6457e060405160405180910390a35050565b828054828255906000526020600020908101928215620002c4579160200282015b82811115620002c35782518260006101000a81548173ffffffffffffffffffffffffffffffffffffffff021916908373ffffffffffffffffffffffffffffffffffffffff1602179055509160200191906001019062000269565b5b509050620002d39190620002d7565b5090565b5b80821115620002f2576000816000905550600101620002d8565b5090565b6000604051905090565b600080fd5b600080fd5b600080fd5b600080fd5b6000601f19601f8301169050919050565b7f4e487b7100000000000000000000000000000000000000000000000000000000600052604160045260246000fd5b6200035f8262000314565b810181811067ffffffffffffffff8211171562000381576200038062000325565b5b80604052505050565b600062000396620002f6565b9050620003a4828262000354565b919050565b600067ffffffffffffffff821115620003c757620003c662000325565b5b620003d28262000314565b9050602081019050919050565b60005b83811015620003ff578082015181840152602081019050620003e2565b60008484015250505050565b6000620004226200041c84620003a9565b6200038a565b9050828152602081018484840111156200044157620004406200030f565b5b6200044e848285620003df565b509392505050565b600082601f8301126200046e576200046d6200030a565b5b8151620004808482602086016200040b565b91505092915050565b60008060408385031215620004a357620004a262000300565b5b600083015167ffffffffffffffff811115620004c457620004c362000305565b5b620004d28582860162000456565b925050602083015167ffffffffffffffff811115620004f657620004f562000305565b5b620005048582860162000456565b9150509250929050565b600081519050919050565b7f4e487b7100000000000000000000000000000000000000000000000000000000600052602260045260246000fd5b600060028204905060018216806200056157607f821691505b60208210810362000577576200057662000519565b5b50919050565b60008190508160005260206000209050919050565b60006020601f8301049050919050565b600082821b905092915050565b600060088302620005e17fffffffffffffffffffffffffffffffffffffffffffffffffffffffffffffffff82620005a2565b620005ed8683620005a2565b95508019841693508086168417925050509392505050565b6000819050919050565b6000819050919050565b60006200063a620006346200062e8462000605565b6200060f565b62000605565b9050919050565b6000819050919050565b620006568362000619565b6200066e620006658262000641565b848454620005af565b825550505050565b600090565b6200068562000676565b620006928184846200064b565b505050565b5b81811015620006ba57620006ae6000826200067b565b60018101905062000698565b5050565b601f8211156200070957620006d3816200057d565b620006de8462000592565b81016020851015620006ee578190505b62000706620006fd8562000592565b83018262000697565b50505b505050565b600082821c905092915050565b60006200072e600019846008026200070e565b1980831691505092915050565b60006200074983836200071b565b9150826002028217905092915050565b62000764826200050e565b67ffffffffffffffff81111562000780576200077f62000325565b5b6200078c825462000548565b62000799828285620006be565b600060209050601f831160018114620007d15760008415620007bc578287015190505b620007c885826200073b565b86555062000838565b601f198416620007e1866200057d565b60005b828110156200080b57848901518255600182019150602085019450602081019050620007e4565b868310156200082b578489015162000827601f8916826200071b565b8355505b6001600288020188555050505b505050505050565b6133ef80620008506000396000f3fe608060405234801561001057600080fd5b50600436106101365760003560e01c806370a08231116100b8578063a22cb4651161007c578063a22cb4651461032a578063b88d4fde14610346578063c87b56dd14610362578063ded4725914610392578063e985e9c51461039c578063f2fde38b146103cc57610136565b806370a0823114610295578063715018a6146102c55780638da5cb5b146102cf57806395d89b41146102ed5780639d4d4d431461030b57610136565b80630a3eb367116100ff5780630a3eb367146101f157806323b872dd1461020f578063393282671461022b57806342842e0e146102495780636352211e1461026557610136565b806275a3171461013b57806301ffc9a71461015757806306fdde0314610187578063081812fc146101a5578063095ea7b3146101d5575b600080fd5b61015560048036038101906101509190611fd1565b6103e8565b005b610171600480360381019061016c9190612085565b610419565b60405161017e91906120cd565b60405180910390f35b61018f6104fb565b60405161019c9190612167565b60405180910390f35b6101bf60048036038101906101ba91906121bf565b61058d565b6040516101cc91906121fb565b60405180910390f35b6101ef60048036038101906101ea9190612216565b6105d3565b005b6101f96106ea565b6040516102069190612265565b60405180910390f35b61022960048036038101906102249190612280565b6106fb565b005b61023361075b565b60405161024091906121fb565b60405180910390f35b610263600480360381019061025e9190612280565b610838565b005b61027f600480360381019061027a91906121bf565b610858565b60405161028c91906121fb565b60405180910390f35b6102af60048036038101906102aa91906122d3565b610909565b6040516102bc9190612265565b60405180910390f35b6102cd6109c0565b005b6102d76109d4565b6040516102e491906121fb565b60405180910390f35b6102f56109fe565b6040516103029190612167565b60405180910390f35b610313610a90565b604051610321929190612300565b60405180910390f35b610344600480360381019061033f9190612355565b610c54565b005b610360600480360381019061035b9190612436565b610c6a565b005b61037c600480360381019061037791906121bf565b610ccc565b6040516103899190612167565b60405180910390f35b61039a610cde565b005b6103b660048036038101906103b191906124b9565b610db0565b6040516103c391906120cd565b60405180910390f35b6103e660048036038101906103e191906122d3565b610e44565b005b60006103f46008610ec7565b90506104006008610ed5565b61040a8382610eeb565b61041481836110c4565b505050565b60007f80ac58cd000000000000000000000000000000000000000000000000000000007bffffffffffffffffffffffffffffffffffffffffffffffffffffffff1916827bffffffffffffffffffffffffffffffffffffffffffffffffffffffff191614806104e457507f5b5e139f000000000000000000000000000000000000000000000000000000007bffffffffffffffffffffffffffffffffffffffffffffffffffffffff1916827bffffffffffffffffffffffffffffffffffffffffffffffffffffffff1916145b806104f457506104f382611131565b5b9050919050565b60606000805461050a90612528565b80601f016020809104026020016040519081016040528092919081815260200182805461053690612528565b80156105835780601f1061055857610100808354040283529160200191610583565b820191906000526020600020905b81548152906001019060200180831161056657829003601f168201915b5050505050905090565b60006105988261119b565b6004600083815260200190815260200160002060009054906101000a900473ffffffffffffffffffffffffffffffffffffffff169050919050565b60006105de82610858565b90508073ffffffffffffffffffffffffffffffffffffffff168373ffffffffffffffffffffffffffffffffffffffff160361064e576040517f08c379a0000000000000000000000000000000000000000000000000000000008152600401610645906125cb565b60405180910390fd5b8073ffffffffffffffffffffffffffffffffffffffff1661066d6111e6565b73ffffffffffffffffffffffffffffffffffffffff16148061069c575061069b816106966111e6565b610db0565b5b6106db576040517f08c379a00000000000000000000000000000000000000000000000000000000081526004016106d29061265d565b60405180910390fd5b6106e583836111ee565b505050565b60006106f66008610ec7565b905090565b61070c6107066111e6565b826112a7565b61074b576040517f08c379a0000000000000000000000000000000000000000000000000000000008152600401610742906126ef565b60405180910390fd5b61075683838361133c565b505050565b600080600a80549050036107a4576040517f08c379a000000000000000000000000000000000000000000000000000000000815260040161079b9061275b565b60405180910390fd5b6000600a6001600a805490506107ba91906127aa565b815481106107cb576107ca6127de565b5b9060005260206000200160009054906101000a900473ffffffffffffffffffffffffffffffffffffffff1690507f3e54ca13afccf0a11f69014b9d8034a2850b1516090eee771dd074514c77f008328260405161082992919061280d565b60405180910390a18091505090565b61085383838360405180602001604052806000815250610c6a565b505050565b6000806002600084815260200190815260200160002060009054906101000a900473ffffffffffffffffffffffffffffffffffffffff169050600073ffffffffffffffffffffffffffffffffffffffff168173ffffffffffffffffffffffffffffffffffffffff1603610900576040517f08c379a00000000000000000000000000000000000000000000000000000000081526004016108f790612882565b60405180910390fd5b80915050919050565b60008073ffffffffffffffffffffffffffffffffffffffff168273ffffffffffffffffffffffffffffffffffffffff1603610979576040517f08c379a000000000000000000000000000000000000000000000000000000000815260040161097090612914565b60405180910390fd5b600360008373ffffffffffffffffffffffffffffffffffffffff1673ffffffffffffffffffffffffffffffffffffffff168152602001908152602001600020549050919050565b6109c86115a2565b6109d26000611620565b565b6000600760009054906101000a900473ffffffffffffffffffffffffffffffffffffffff16905090565b606060018054610a0d90612528565b80601f0160208091040260200160405190810160405280929190818152602001828054610a3990612528565b8015610a865780601f10610a5b57610100808354040283529160200191610a86565b820191906000526020600020905b815481529060010190602001808311610a6957829003601f168201915b5050505050905090565b6000806000610a9f6008610ec7565b03610adf576040517f08c379a0000000000000000000000000000000000000000000000000000000008152600401610ad690612980565b60405180910390fd5b6000610aeb6008610ec7565b610af36116e6565b610afd91906129cf565b6001610b099190612a00565b905060005b81811015610bac576000610b226008610ec7565b610b2a6116e6565b610b3491906129cf565b90506000610b4182610858565b90503273ffffffffffffffffffffffffffffffffffffffff168173ffffffffffffffffffffffffffffffffffffffff1603610b8b578380610b8190612a34565b9450505050610b99565b610b968132846106fb565b50505b8080610ba490612a5d565b915050610b0e565b50600a329080600181540180825580915050600190039060005260206000200160009091909190916101000a81548173ffffffffffffffffffffffffffffffffffffffff021916908373ffffffffffffffffffffffffffffffffffffffff1602179055507fab6b29ba589ac192da919ac765f434c9c9d5434cd8d32574732cd2d2923d80433282604051610c41929190612aa5565b60405180910390a1803292509250509091565b610c66610c5f6111e6565b8383611740565b5050565b610c7b610c756111e6565b836112a7565b610cba576040517f08c379a0000000000000000000000000000000000000000000000000000000008152600401610cb1906126ef565b60405180910390fd5b610cc6848484846118ac565b50505050565b6060610cd782611908565b9050919050565b6000600b8080549050610cef6116e6565b610cf991906129cf565b81548110610d0a57610d096127de565b5b9060005260206000200160009054906101000a900473ffffffffffffffffffffffffffffffffffffffff169050610d76816040518060400160405280601481526020017f73616d706c655f6561726e5f636f696e5f7572690000000000000000000000008152506103e8565b7ffa64ad1e4b9414994b17179be01cbfb072e61752e707bf015ee6a6985c2d5e4781604051610da591906121fb565b60405180910390a150565b6000600560008473ffffffffffffffffffffffffffffffffffffffff1673ffffffffffffffffffffffffffffffffffffffff16815260200190815260200160002060008373ffffffffffffffffffffffffffffffffffffffff1673ffffffffffffffffffffffffffffffffffffffff16815260200190815260200160002060009054906101000a900460ff16905092915050565b610e4c6115a2565b600073ffffffffffffffffffffffffffffffffffffffff168173ffffffffffffffffffffffffffffffffffffffff1603610ebb576040517f08c379a0000000000000000000000000000000000000000000000000000000008152600401610eb290612b40565b60405180910390fd5b610ec481611620565b50565b600081600001549050919050565b6001816000016000828254019250508190555050565b600073ffffffffffffffffffffffffffffffffffffffff168273ffffffffffffffffffffffffffffffffffffffff1603610f5a576040517f08c379a0000000000000000000000000000000000000000000000000000000008152600401610f5190612bac565b60405180910390fd5b610f6381611a1a565b15610fa3576040517f08c379a0000000000000000000000000000000000000000000000000000000008152600401610f9a90612c18565b60405180910390fd5b610faf60008383611a86565b6001600360008473ffffffffffffffffffffffffffffffffffffffff1673ffffffffffffffffffffffffffffffffffffffff1681526020019081526020016000206000828254610fff9190612a00565b92505081905550816002600083815260200190815260200160002060006101000a81548173ffffffffffffffffffffffffffffffffffffffff021916908373ffffffffffffffffffffffffffffffffffffffff160217905550808273ffffffffffffffffffffffffffffffffffffffff16600073ffffffffffffffffffffffffffffffffffffffff167fddf252ad1be2c89b69c2b068fc378daa952ba7f163c4a11628f55a4df523b3ef60405160405180910390a46110c060008383611a8b565b5050565b6110cd82611a1a565b61110c576040517f08c379a000000000000000000000000000000000000000000000000000000000815260040161110390612caa565b60405180910390fd5b8060066000848152602001908152602001600020908161112c9190612e76565b505050565b60007f01ffc9a7000000000000000000000000000000000000000000000000000000007bffffffffffffffffffffffffffffffffffffffffffffffffffffffff1916827bffffffffffffffffffffffffffffffffffffffffffffffffffffffff1916149050919050565b6111a481611a1a565b6111e3576040517f08c379a00000000000000000000000000000000000000000000000000000000081526004016111da90612882565b60405180910390fd5b50565b600033905090565b816004600083815260200190815260200160002060006101000a81548173ffffffffffffffffffffffffffffffffffffffff021916908373ffffffffffffffffffffffffffffffffffffffff160217905550808273ffffffffffffffffffffffffffffffffffffffff1661126183610858565b73ffffffffffffffffffffffffffffffffffffffff167f8c5be1e5ebec7d5bd14f71427d1e84f3dd0314c0f7b2291e5b200ac8c7c3b92560405160405180910390a45050565b6000806112b383610858565b90508073ffffffffffffffffffffffffffffffffffffffff168473ffffffffffffffffffffffffffffffffffffffff1614806112f557506112f48185610db0565b5b8061133357508373ffffffffffffffffffffffffffffffffffffffff1661131b8461058d565b73ffffffffffffffffffffffffffffffffffffffff16145b91505092915050565b8273ffffffffffffffffffffffffffffffffffffffff1661135c82610858565b73ffffffffffffffffffffffffffffffffffffffff16146113b2576040517f08c379a00000000000000000000000000000000000000000000000000000000081526004016113a990612fba565b60405180910390fd5b600073ffffffffffffffffffffffffffffffffffffffff168273ffffffffffffffffffffffffffffffffffffffff1603611421576040517f08c379a00000000000000000000000000000000000000000000000000000000081526004016114189061304c565b60405180910390fd5b61142c838383611a86565b6114376000826111ee565b6001600360008573ffffffffffffffffffffffffffffffffffffffff1673ffffffffffffffffffffffffffffffffffffffff168152602001908152602001600020600082825461148791906127aa565b925050819055506001600360008473ffffffffffffffffffffffffffffffffffffffff1673ffffffffffffffffffffffffffffffffffffffff16815260200190815260200160002060008282546114de9190612a00565b92505081905550816002600083815260200190815260200160002060006101000a81548173ffffffffffffffffffffffffffffffffffffffff021916908373ffffffffffffffffffffffffffffffffffffffff160217905550808273ffffffffffffffffffffffffffffffffffffffff168473ffffffffffffffffffffffffffffffffffffffff167fddf252ad1be2c89b69c2b068fc378daa952ba7f163c4a11628f55a4df523b3ef60405160405180910390a461159d838383611a8b565b505050565b6115aa6111e6565b73ffffffffffffffffffffffffffffffffffffffff166115c86109d4565b73ffffffffffffffffffffffffffffffffffffffff161461161e576040517f08c379a0000000000000000000000000000000000000000000000000000000008152600401611615906130b8565b60405180910390fd5b565b6000600760009054906101000a900473ffffffffffffffffffffffffffffffffffffffff16905081600760006101000a81548173ffffffffffffffffffffffffffffffffffffffff021916908373ffffffffffffffffffffffffffffffffffffffff1602179055508173ffffffffffffffffffffffffffffffffffffffff168173ffffffffffffffffffffffffffffffffffffffff167f8be0079c531659141344cd1fd0a4f28419497f9722a3daafe3b4186f6b6457e060405160405180910390a35050565b6000600960008154809291906116fb90612a5d565b9190505550444261170c6008610ec7565b60095460405160200161172294939291906130f9565b6040516020818303038152906040528051906020012060001c905090565b8173ffffffffffffffffffffffffffffffffffffffff168373ffffffffffffffffffffffffffffffffffffffff16036117ae576040517f08c379a00000000000000000000000000000000000000000000000000000000081526004016117a590613193565b60405180910390fd5b80600560008573ffffffffffffffffffffffffffffffffffffffff1673ffffffffffffffffffffffffffffffffffffffff16815260200190815260200160002060008473ffffffffffffffffffffffffffffffffffffffff1673ffffffffffffffffffffffffffffffffffffffff16815260200190815260200160002060006101000a81548160ff0219169083151502179055508173ffffffffffffffffffffffffffffffffffffffff168373ffffffffffffffffffffffffffffffffffffffff167f17307eab39ab6107e8899845ad3d59bd9653f200f220920489ca2b5937696c318360405161189f91906120cd565b60405180910390a3505050565b6118b784848461133c565b6118c384848484611a90565b611902576040517f08c379a00000000000000000000000000000000000000000000000000000000081526004016118f990613225565b60405180910390fd5b50505050565b60606119138261119b565b600060066000848152602001908152602001600020805461193390612528565b80601f016020809104026020016040519081016040528092919081815260200182805461195f90612528565b80156119ac5780601f10611981576101008083540402835291602001916119ac565b820191906000526020600020905b81548152906001019060200180831161198f57829003601f168201915b5050505050905060006119bd611c17565b905060008151036119d2578192505050611a15565b600082511115611a075780826040516020016119ef929190613281565b60405160208183030381529060405292505050611a15565b611a1084611c2e565b925050505b919050565b60008073ffffffffffffffffffffffffffffffffffffffff166002600084815260200190815260200160002060009054906101000a900473ffffffffffffffffffffffffffffffffffffffff1673ffffffffffffffffffffffffffffffffffffffff1614159050919050565b505050565b505050565b6000611ab18473ffffffffffffffffffffffffffffffffffffffff16611c96565b15611c0a578373ffffffffffffffffffffffffffffffffffffffff1663150b7a02611ada6111e6565b8786866040518563ffffffff1660e01b8152600401611afc94939291906132fa565b6020604051808303816000875af1925050508015611b3857506040513d601f19601f82011682018060405250810190611b35919061335b565b60015b611bba573d8060008114611b68576040519150601f19603f3d011682016040523d82523d6000602084013e611b6d565b606091505b506000815103611bb2576040517f08c379a0000000000000000000000000000000000000000000000000000000008152600401611ba990613225565b60405180910390fd5b805181602001fd5b63150b7a0260e01b7bffffffffffffffffffffffffffffffffffffffffffffffffffffffff1916817bffffffffffffffffffffffffffffffffffffffffffffffffffffffff191614915050611c0f565b600190505b949350505050565b606060405180602001604052806000815250905090565b6060611c398261119b565b6000611c43611c17565b90506000815111611c635760405180602001604052806000815250611c8e565b80611c6d84611cb9565b604051602001611c7e929190613281565b6040516020818303038152906040525b915050919050565b6000808273ffffffffffffffffffffffffffffffffffffffff163b119050919050565b606060008203611d00576040518060400160405280600181526020017f30000000000000000000000000000000000000000000000000000000000000008152509050611e14565b600082905060005b60008214611d32578080611d1b90612a5d565b915050600a82611d2b9190613388565b9150611d08565b60008167ffffffffffffffff811115611d4e57611d4d611ea6565b5b6040519080825280601f01601f191660200182016040528015611d805781602001600182028036833780820191505090505b5090505b60008514611e0d57600182611d9991906127aa565b9150600a85611da891906129cf565b6030611db49190612a00565b60f81b818381518110611dca57611dc96127de565b5b60200101907effffffffffffffffffffffffffffffffffffffffffffffffffffffffffffff1916908160001a905350600a85611e069190613388565b9450611d84565b8093505050505b919050565b6000604051905090565b600080fd5b600080fd5b600073ffffffffffffffffffffffffffffffffffffffff82169050919050565b6000611e5882611e2d565b9050919050565b611e6881611e4d565b8114611e7357600080fd5b50565b600081359050611e8581611e5f565b92915050565b600080fd5b600080fd5b6000601f19601f8301169050919050565b7f4e487b7100000000000000000000000000000000000000000000000000000000600052604160045260246000fd5b611ede82611e95565b810181811067ffffffffffffffff82111715611efd57611efc611ea6565b5b80604052505050565b6000611f10611e19565b9050611f1c8282611ed5565b919050565b600067ffffffffffffffff821115611f3c57611f3b611ea6565b5b611f4582611e95565b9050602081019050919050565b82818337600083830152505050565b6000611f74611f6f84611f21565b611f06565b905082815260208101848484011115611f9057611f8f611e90565b5b611f9b848285611f52565b509392505050565b600082601f830112611fb857611fb7611e8b565b5b8135611fc8848260208601611f61565b91505092915050565b60008060408385031215611fe857611fe7611e23565b5b6000611ff685828601611e76565b925050602083013567ffffffffffffffff81111561201757612016611e28565b5b61202385828601611fa3565b9150509250929050565b60007fffffffff0000000000000000000000000000000000000000000000000000000082169050919050565b6120628161202d565b811461206d57600080fd5b50565b60008135905061207f81612059565b92915050565b60006020828403121561209b5761209a611e23565b5b60006120a984828501612070565b91505092915050565b60008115159050919050565b6120c7816120b2565b82525050565b60006020820190506120e260008301846120be565b92915050565b600081519050919050565b600082825260208201905092915050565b60005b83811015612122578082015181840152602081019050612107565b60008484015250505050565b6000612139826120e8565b61214381856120f3565b9350612153818560208601612104565b61215c81611e95565b840191505092915050565b60006020820190508181036000830152612181818461212e565b905092915050565b6000819050919050565b61219c81612189565b81146121a757600080fd5b50565b6000813590506121b981612193565b92915050565b6000602082840312156121d5576121d4611e23565b5b60006121e3848285016121aa565b91505092915050565b6121f581611e4d565b82525050565b600060208201905061221060008301846121ec565b92915050565b6000806040838503121561222d5761222c611e23565b5b600061223b85828601611e76565b925050602061224c858286016121aa565b9150509250929050565b61225f81612189565b82525050565b600060208201905061227a6000830184612256565b92915050565b60008060006060848603121561229957612298611e23565b5b60006122a786828701611e76565b93505060206122b886828701611e76565b92505060406122c9868287016121aa565b9150509250925092565b6000602082840312156122e9576122e8611e23565b5b60006122f784828501611e76565b91505092915050565b60006040820190506123156000830185612256565b61232260208301846121ec565b9392505050565b612332816120b2565b811461233d57600080fd5b50565b60008135905061234f81612329565b92915050565b6000806040838503121561236c5761236b611e23565b5b600061237a85828601611e76565b925050602061238b85828601612340565b9150509250929050565b600067ffffffffffffffff8211156123b0576123af611ea6565b5b6123b982611e95565b9050602081019050919050565b60006123d96123d484612395565b611f06565b9050828152602081018484840111156123f5576123f4611e90565b5b612400848285611f52565b509392505050565b600082601f83011261241d5761241c611e8b565b5b813561242d8482602086016123c6565b91505092915050565b600080600080608085870312156124505761244f611e23565b5b600061245e87828801611e76565b945050602061246f87828801611e76565b9350506040612480878288016121aa565b925050606085013567ffffffffffffffff8111156124a1576124a0611e28565b5b6124ad87828801612408565b91505092959194509250565b600080604083850312156124d0576124cf611e23565b5b60006124de85828601611e76565b92505060206124ef85828601611e76565b9150509250929050565b7f4e487b7100000000000000000000000000000000000000000000000000000000600052602260045260246000fd5b6000600282049050600182168061254057607f821691505b602082108103612553576125526124f9565b5b50919050565b7f4552433732313a20617070726f76616c20746f2063757272656e74206f776e6560008201527f7200000000000000000000000000000000000000000000000000000000000000602082015250565b60006125b56021836120f3565b91506125c082612559565b604082019050919050565b600060208201905081810360008301526125e4816125a8565b9050919050565b7f4552433732313a20617070726f76652063616c6c6572206973206e6f7420746f60008201527f6b656e206f776e6572206e6f7220617070726f76656420666f7220616c6c0000602082015250565b6000612647603e836120f3565b9150612652826125eb565b604082019050919050565b600060208201905081810360008301526126768161263a565b9050919050565b7f4552433732313a2063616c6c6572206973206e6f7420746f6b656e206f776e6560008201527f72206e6f7220617070726f766564000000000000000000000000000000000000602082015250565b60006126d9602e836120f3565b91506126e48261267d565b604082019050919050565b60006020820190508181036000830152612708816126cc565b9050919050565b7f546865726520617265206e6f20726f62626572732e0000000000000000000000600082015250565b60006127456015836120f3565b91506127508261270f565b602082019050919050565b6000602082019050818103600083015261277481612738565b9050919050565b7f4e487b7100000000000000000000000000000000000000000000000000000000600052601160045260246000fd5b60006127b582612189565b91506127c083612189565b92508282039050818111156127d8576127d761277b565b5b92915050565b7f4e487b7100000000000000000000000000000000000000000000000000000000600052603260045260246000fd5b600060408201905061282260008301856121ec565b61282f60208301846121ec565b9392505050565b7f4552433732313a20696e76616c696420746f6b656e2049440000000000000000600082015250565b600061286c6018836120f3565b915061287782612836565b602082019050919050565b6000602082019050818103600083015261289b8161285f565b9050919050565b7f4552433732313a2061646472657373207a65726f206973206e6f74206120766160008201527f6c6964206f776e65720000000000000000000000000000000000000000000000602082015250565b60006128fe6029836120f3565b9150612909826128a2565b604082019050919050565b6000602082019050818103600083015261292d816128f1565b9050919050565b7f546865726520617265206e6f20636f696e7320696e206120746f776e2e000000600082015250565b600061296a601d836120f3565b915061297582612934565b602082019050919050565b600060208201905081810360008301526129998161295d565b9050919050565b7f4e487b7100000000000000000000000000000000000000000000000000000000600052601260045260246000fd5b60006129da82612189565b91506129e583612189565b9250826129f5576129f46129a0565b5b828206905092915050565b6000612a0b82612189565b9150612a1683612189565b9250828201905080821115612a2e57612a2d61277b565b5b92915050565b6000612a3f82612189565b915060008203612a5257612a5161277b565b5b600182039050919050565b6000612a6882612189565b91507fffffffffffffffffffffffffffffffffffffffffffffffffffffffffffffffff8203612a9a57612a9961277b565b5b600182019050919050565b6000604082019050612aba60008301856121ec565b612ac76020830184612256565b9392505050565b7f4f776e61626c653a206e6577206f776e657220697320746865207a65726f206160008201527f6464726573730000000000000000000000000000000000000000000000000000602082015250565b6000612b2a6026836120f3565b9150612b3582612ace565b604082019050919050565b60006020820190508181036000830152612b5981612b1d565b9050919050565b7f4552433732313a206d696e7420746f20746865207a65726f2061646472657373600082015250565b6000612b966020836120f3565b9150612ba182612b60565b602082019050919050565b60006020820190508181036000830152612bc581612b89565b9050919050565b7f4552433732313a20746f6b656e20616c7265616479206d696e74656400000000600082015250565b6000612c02601c836120f3565b9150612c0d82612bcc565b602082019050919050565b60006020820190508181036000830152612c3181612bf5565b9050919050565b7f45524337323155524953746f726167653a2055524920736574206f66206e6f6e60008201527f6578697374656e7420746f6b656e000000000000000000000000000000000000602082015250565b6000612c94602e836120f3565b9150612c9f82612c38565b604082019050919050565b60006020820190508181036000830152612cc381612c87565b9050919050565b60008190508160005260206000209050919050565b60006020601f8301049050919050565b600082821b905092915050565b600060088302612d2c7fffffffffffffffffffffffffffffffffffffffffffffffffffffffffffffffff82612cef565b612d368683612cef565b95508019841693508086168417925050509392505050565b6000819050919050565b6000612d73612d6e612d6984612189565b612d4e565b612189565b9050919050565b6000819050919050565b612d8d83612d58565b612da1612d9982612d7a565b848454612cfc565b825550505050565b600090565b612db6612da9565b612dc1818484612d84565b505050565b5b81811015612de557612dda600082612dae565b600181019050612dc7565b5050565b601f821115612e2a57612dfb81612cca565b612e0484612cdf565b81016020851015612e13578190505b612e27612e1f85612cdf565b830182612dc6565b50505b505050565b600082821c905092915050565b6000612e4d60001984600802612e2f565b1980831691505092915050565b6000612e668383612e3c565b9150826002028217905092915050565b612e7f826120e8565b67ffffffffffffffff811115612e9857612e97611ea6565b5b612ea28254612528565b612ead828285612de9565b600060209050601f831160018114612ee05760008415612ece578287015190505b612ed88582612e5a565b865550612f40565b601f198416612eee86612cca565b60005b82811015612f1657848901518255600182019150602085019450602081019050612ef1565b86831015612f335784890151612f2f601f891682612e3c565b8355505b6001600288020188555050505b505050505050565b7f4552433732313a207472616e736665722066726f6d20696e636f72726563742060008201527f6f776e6572000000000000000000000000000000000000000000000000000000602082015250565b6000612fa46025836120f3565b9150612faf82612f48565b604082019050919050565b60006020820190508181036000830152612fd381612f97565b9050919050565b7f4552433732313a207472616e7366657220746f20746865207a65726f2061646460008201527f7265737300000000000000000000000000000000000000000000000000000000602082015250565b60006130366024836120f3565b915061304182612fda565b604082019050919050565b6000602082019050818103600083015261306581613029565b9050919050565b7f4f776e61626c653a2063616c6c6572206973206e6f7420746865206f776e6572600082015250565b60006130a26020836120f3565b91506130ad8261306c565b602082019050919050565b600060208201905081810360008301526130d181613095565b9050919050565b6000819050919050565b6130f36130ee82612189565b6130d8565b82525050565b600061310582876130e2565b60208201915061311582866130e2565b60208201915061312582856130e2565b60208201915061313582846130e2565b60208201915081905095945050505050565b7f4552433732313a20617070726f766520746f2063616c6c657200000000000000600082015250565b600061317d6019836120f3565b915061318882613147565b602082019050919050565b600060208201905081810360008301526131ac81613170565b9050919050565b7f4552433732313a207472616e7366657220746f206e6f6e20455243373231526560008201527f63656976657220696d706c656d656e7465720000000000000000000000000000602082015250565b600061320f6032836120f3565b915061321a826131b3565b604082019050919050565b6000602082019050818103600083015261323e81613202565b9050919050565b600081905092915050565b600061325b826120e8565b6132658185613245565b9350613275818560208601612104565b80840191505092915050565b600061328d8285613250565b91506132998284613250565b91508190509392505050565b600081519050919050565b600082825260208201905092915050565b60006132cc826132a5565b6132d681856132b0565b93506132e6818560208601612104565b6132ef81611e95565b840191505092915050565b600060808201905061330f60008301876121ec565b61331c60208301866121ec565b6133296040830185612256565b818103606083015261333b81846132c1565b905095945050505050565b60008151905061335581612059565b92915050565b60006020828403121561337157613370611e23565b5b600061337f84828501613346565b91505092915050565b600061339382612189565b915061339e83612189565b9250826133ae576133ad6129a0565b5b82820490509291505056fea26469706673582212202ee3cbf9c1fd07168ac95ad11feca791be80f187ff67c066803050ae3ae6245064736f6c63430008110033",
  "linkReferences": {},
  "deployedLinkReferences": {}
}